:10000000EAC00000FAC00000F8C00000F6C000001E
:10001000F4C00000F2C00000F0C00000EEC000001C
:10002000ECC00000EAC00000E8C00000E6C000002C
:10003000E4C00000E2C00000E0C00000DEC000003C
:10004000DCC00000DAC00000D8C00000D6C000004C
:100050004DC10000D2C00000D0C00000CEC00000E2
:10006000CCC00000CAC00000C8C00000C6C000006C
:10007000C4C00000C2C00000C0C00000BEC000007C
:10008000BCC00000BAC00000B8C00000B6C000008C
:10009000B4C00000B2C00000B0C00000AEC000009C
:1000A000ACC00000AAC00000A8C00000A6C00000AC
:1000B000A4C00000A2C00000A0C000009EC00000BC
:1000C0009CC000009AC0000098C0000096C00000CC
:1000D00094C0000092C0000090C000008EC00000DC
:1000E0008CC00000000102030405060708090A0B82
:1000F0000C0D0E1F101112131415161718191A1BB8
:100100001C1D1F1F202122232425262728292A2BB6
:100110002C2D2E2F303132333435363738393A3BA7
:100120003C3D3E3F404142434445464748494A4B97
:100130004C4D4E4F505152535455565758595A5B87
:100140005C5D5E5F606162636465666768696A6B77
:100150006C6D6E6F707172737475767778797A7B67
:100160007C7D7E7F808182838485868788898A8B57
:100170008C8D8E8F909192939495969798999A9B47
:100180009C9D9E9FA0A1A2A3A4A5A6A7A8A9AAAB37
:10019000ACADAEAFB0B1B2B3B4B5B6B7B8B9BABB27
:1001A000BCBDBEBFC0C1C2C3C4C5C6C7C8C9CACB17
:1001B000CCCDCECFE0E1E2E3E4E5E6E7E8E9EAEB47
:1001C000ECEDEEEFFFFEFDFCFBFAF9F8F7F6F5F4C7
:1001D000F3F2F1F0000011241FBECFEFD1E2DEBF39
:1001E000CDBF00E00CBF23E0A0E0B2E001C01D9253
:1001F000AD32B207E1F7ADD0B0C002CFCF93DF93FD
:1002000000D000D0CDB7DEB71A8219821C821B82C3
:100210001E821D8285B1806285B9E981FA81EC5127
:10022000FF4F85919491892B19F18B819C818C32A0
:10023000914010F01C821B828B819C81880F991F3A
:100240009E838D838D819E81E981FA81EC51FF4FE0
:10025000E491DC01AF5FBD4FEC9389819A810196F7
:100260009A8389838B819C8101969C838B83D5CFD4
:1002700085B18F7D85B926960FB6F894DEBF0FBE87
:10028000CDBFDF91CF91089511B88FEF82B990EE75
:1002900094B99FE195B987B918B880930A01109273
:1002A0000B011AB88BB91DB88EB910BA81BB13BA3D
:1002B00084BB10920101809302011092040180938B
:1002C00005011092070180930801089581E0809351
:1002D0006F0085E0809381008FE598EF9093850013
:1002E0008093840078941092000208951F920F92D8
:1002F0000FB60F9211248F939F9380910002853047
:1003000030F080910002863020F081E003C081E06F
:1003100001C080E0882321F085B18F7D85B907C0B9
:1003200080910002853019F485B1806285B9809191
:1003300000028F5F809300028FE598EF9093850015
:10034000809384009F918F910F900FBE0F901F900C
:0E0350001895BCDF99DF52DFFFCFF894FFCF86
:00000001FF
